:020000020000FC
:1000000066C569C018951895099465C03AC043C083
:1000100043C018951895EBC0189518953CC51895D0
:1000200018957AC01895697AC076C044C05D029070
:10003000FFFF7F0000B99FB68A9409F4E5E29FBEF6
:1000400018959FB68A949FBE189520FD939A21FD1E
:10005000949A22FD959AE1E3832C24BC1895A895E7
:1000600018958F12EECFA89511FDEFCFE0916500A6
:10007000852C20FD939821FD949822FD959844BCF1
:1000800018959FB640916300415008F40E7F40934D
:1000900063009FBE189518959FB6409164004395E4
:1000A0004093640001F44F77A1F0409164004F70D9
:1000B00019F4BB2019F0BA949FBE189540916600C0
:1000C00043954093660040916700439540936700D5
:1000D000F3CF2061F1CF46B557B59EB496FE0DC063
:1000E0009FB65A5659BD48BD41E84EBD48E048BF8D
:1000F0009FBE18959FB6BB240BC098B693FCFACF51
:100100009FB63A0148B559B55659641A750A106137
:1001100041EC4EBD9FBE18959FB641B14038B1F13C
:10012000483A51F0483B89F0483F39F1403B21F0D3
:100130004F1321C045ED20C067FC0DC0F3B94AEF55
:1001400010FD4FEF40937F0016C067FC07C0409141
:100150007F0043B9F6CF47E9409381005E2FE091DD
:1001600081004191E093810043B9EF39E52F09F017
:1001700002C045E801C045EC46BF9FBE18954091BE
:1001800080004F131461F0938000F5CF4091800000
:10019000439540938000413019F473B06F2EEBCF3C
:1001A000423011F463B0E7CF433021F443B1423021
:1001B00001F7E1CF4A3061F05E2FE4E9E40F43B18B
:1001C0004083E52F50919E00540F50939E00D3CF53
:1001D00043B15091980056FD006157FD0062451BE8
:1001E00050E9450F5093980040939E00C4CF9FB6AE
:1001F0004CB1453F59F006FF0DC030F450918300DB
:100200005A9531F4742E18610F7B04C0006450E0DD
:10021000509383009FBE189590E578ECA39AC29AFC
:10022000939A1ED0E1F7A398089594E674EBA29AEE
:10023000C19A949A15D0E1F7A298089598E770EAC8
:10024000929A959A0DD0E1F708959CE87CE8A39ADC
:10025000A29AC19A939A04D0E1F7A298A39808951C
:10026000F2BF82B78032E8F362B3677C62BB9298D8
:10027000C298C19860E1F2BFA89582B78717E8F3EA
:100280006A95C9F79A95089500D000D000D09FE0F4
:1002900060E1F2BF81E088BFA89588B780FFFDCFFD
:1002A0006A95B9F79A95A1F7089580918F0090917A
:1002B000900089569A4739F0CFE8D0E0E6E2859180
:1002C0008993CF39E1F70895F894EF93F5DFEF9133
:1002D000789408958091600081BF0F7DCFE8D0E0D1
:1002E00080E890E0A895E199FDCF67B760FDFACF6F
:1002F000CF3981F09FBB8EBB0196E09A6DB317F0AA
:100300006993F0CF79917DBBF894E29A6713E19AF3
:100310007894E8CFBCDF8FEF81BF0895000C111CEB
:10032000AA1C8A95D9F70895869FA12C969FA00CA8
:10033000C11DDF1F879FA00CC11DDF1F979FC00D30
:10034000D11D0895E894A1E070E03AD0A2E071E0F8
:1003500037D0A4E0C8E8D3E121978799E9F741D0E5
:10036000A5E0C8E8D3E121978699E9F73AD056F39A
:100370008E9A969A8CDFA6E070E03FD0EC01939ABB
:100380003CD093982AD083DFA7E071E036D0EC010F
:10039000949A33D0949821D0969879DFA9E070E0B0
:1003A0002CD0EC01929A29D0929813D0AAE071E057
:1003B00024D0EC01C29A21D0C2980BD08E98089517
:1003C000C8E8D3E11AD0009619F02197D9F70AC0EE
:1003D0000895C817D90730F408958C179D0710F4B5
:1003E000089551F4CA2FA39A50DFA3984DDFCA9500
:1003F000D1F74ADF49DF68940895F0BF706477B998
:1004000087EC86B9A8953699FECF84B195B1F6B937
:10041000089513FD4AC012FD3AC013FD46C012FDF7
:1004200036C01F76C30184369F0708F40895C09133
:100430007D00D0917E008C1B9D0B60F41068909520
:1004400081959F4F60917B0070917C0007C0CC2705
:10045000DD2710C06091790070917A008059914039
:10046000B2F3C8E3D0E060DFC73583E0D80710F00F
:10047000C7E5D3E0C0937700D093780001FF03C0B5
:1004800082E0B82EA7C080E1B816BF1E0895E30130
:100490001F7E80919D0080FB17F9CC0FC29520969E
:1004A00049F3CE016DE373E0DCCFD72D1F76C0E0BA
:1004B000D03001F3CE0160E074E0D3CF809195009D
:1004C0009091960080937D0090937E0060919100C2
:1004D00070919200681B790B14D0809379009093EF
:1004E0007A006091950070919600809193009091B0
:1004F0009400681B790B05D080937B0090937C005F
:1005000008956059714085E595E00196A8959F3F53
:10051000890721F0C0EEDCEF07DFB9F70895F89402
:100520008CB59DB56091640078B77894903872FD71
:100530006F1FC0916800D0916900A0906A008093FD
:1005400068009093690060936A0000906B001090BF
:100550006C0070916D00C0936B00D0936C00A09202
:100560006D0080199109670B97306F0728F480E0C0
:1005700097E060E0D694C7946130A7E5B3E058F007
:100580006230ACEAB1E038F0643018F080E090E01E
:1005900064E0A6EDD0E07D0180936E0090936F0043
:1005A00060937000669597958795C0916800D0918B
:1005B0006900A0906A0070E440D0C0937100D093AD
:1005C0007200A092730054D014FD27CFC091770021
:1005D000D0917800CE15DF0508F0E701CC15DD05D8
:1005E00008F0E6018EE890E0C817D90708F0CE01C0
:1005F000880F991FC816D90608F06C0187E593E0AB
:100600008C1B9D0BB1F02096B1F01D7F116016FF81
:1006100004C0880F991FCC0FDD1F75E29F137BE18B
:10062000C09580951E01F8942C0170936500789414
:1006300008951360F2CF1C7FF0CF879FC10DDF1F9D
:10064000AF1E979FC00DD11DAF1E679FD00DA11C7F
:10065000089580916E0090916F0060917000C0913C
:100660007100D0917200A09073000895F2DFE5DF71
:1006700079B7072E7B7E79BF70E1F894DBBDCABDE8
:1006800078BF8CB59DB5789401606091640078B7AF
:10069000903872FD6F1FC81BD90BA60AA092630089
:1006A0000AF40E7F09BE0895279670E1F8948CB580
:1006B0009DB5C80FD91FDBBDCABD78BFA09263002E
:1006C00001607894089514FDA8DE00FDFCCF089524
:1006D000F5BD80E488BFEFE29298C298C19882B3DA
:1006E000877C82BB0895B09BF09366008091660082
:1006F00085FF0895E0E0F894FCE185919491F0E0A5
:10070000789401960297A8F3F894F7BBF4BBF1BB79
:1007100088E181BDF1BD8091600081BF71CA82E531
:1007200082B985EC86BF0895A298A398C7DE84E5B8
:1007300088BF89BFF0BD89E189B9549A86E880BD38
:100740008CB15F9A579AEBDF81EC8EBD89B78062DE
:1007500089BFBB24137EF0936600F0936700A895D1
:1007600014FD0CC0C0DF24FD8CD180916700883758
:10077000B1F78CE38093670061DDF1CF4ADEC09171
:100780007700D0917800209621F78AE0B81638F3E8
:1007900012FFF6BF13FF5498812F8C7019F089B7A0
:1007A0008F7D89BF52DD51DD50DD92DF0D7FA29A32
:1007B000A398F0936600F0936700A89514FD0EC00F
:1007C000BB20D9F790DF24FD5CD1809167008E318A
:1007D000A1F77EDF5CDD32DD28DDA6CF04FD74DD10
:1007E00005FD78DD1ADE209621F3BB2011F370DFC2
:1007F00023FDFDCF80B7886080BFA398A298CEE884
:10080000D0E06E010260ACD082E0B82E86E080932A
:1008100062008CE08093610081E085BD17FD36C0E9
:10082000A7D00B7F0860C29810FD929A9FD0037FDB
:10083000F894287F10FD226082B3959892B38913B3
:10084000949A789495D00460929810FDC19A8ED0B5
:100850000B7F0860F894287F10FD216082B3949884
:1008600092B38913939A789483D0037FC19810FD33
:10087000C29A7CD00460F894287F10FD246082B373
:10088000939892B38913959A789435C06FD0037F6B
:10089000F894287F10FD216082B3959892B3891354
:1008A000939A789465D00B7F0860C29810FDC19A26
:1008B0005DD00460F894287F10FD226082B3939885
:1008C00092B38913949A789453D0037FC19810FD02
:1008D000929A4CD00B7F0860F894287F10FD24601A
:1008E00082B3949892B38913959A789441D0046016
:1008F000929810FDC29A80916100803010FF41F102
:10090000F8948091840090918500019680938400F2
:10091000909385007894E6012096D9F0809161004B
:100920008C3038F4839580936100629686ED90E078
:1009300005C01F7BA3986B9687E593E0C817D9077E
:1009400010F06C016BCF6E0169CFF0938D00C0DEAB
:100950002CCF4DCFEFE282B3877C82BBA39A7FC0BE
:1009600016FFA39AF0936100106479C01F7D01C047
:10097000106280916200815050F08093620016FFF7
:1009800039C0C0E0DFEFAF2E8FDEA4E05AC0EF32F7
:1009900011F4E1E3A39816FF2DC023FD6EC002FD04
:1009A00004C003FD06C0379A07C080E087B93798B6
:1009B00003C081E087B93798C0917400D091750069
:1009C000A090760072B77F71D71BAF0A30F0C030AD
:1009D0007AECD70778E0A70620F4C0E0D8EB7BE0FC
:1009E000A72EC0937400D0937500A09276005CDEB1
:1009F000AFEF27C07BE13ADE66DE23FD3EC002FD9D
:100A000004C003FD06C0379A07C080E087B9379855
:100A100003C081E087B9379879E528DE00FF9ACFD7
:100A200014FDFBDC68B1612765FDF8CF12DEA92F4C
:100A30006F13AFEFC80FD91FA61EC80FD91FA61E70
:100A400017DEBA2F00FF8CCF14FDE7DC68B16127F9
:100A500065FD03C0AB17AF1FF5CFAA9599F75FDD12
:100A600016FF31DE24FD0DD0809162008F131E7FB2
:100A7000BF1208958F918F9168CF70E8F7DD23DE64
:100A8000EECF2F7E286087E425FF86E4F0BF87B98C
:100A90008FEC86B90895277F40B7486040BF3D9AE4
:100AA00044B155B125FF06C040938800509389009A
:100AB0002F7D189540938600509387002062206414
:100AC000189540938A0050938B002F7B1895002433
:100AD0000FBEEFE5F4E0FEBFEDBF0292E036F00599
:100AE00009F4EEE1E015F005C1F781B780936000ED
:100AF000A4B6F4BFF8BB86E087BB80E385BBF4BB3C
:100B000082E082BB8EE381BB82E083BF81EC8EBD3D
:100B1000F5BD88E181BD88E081BDB9DBDBDBC5DBEC
:100B2000FEDD78940FDCA0FAAF1226F475DB7DDBD6
:100B300085DBFACDA2FE04C081DB6EDB0068F4CD5C
:100B4000A1FE02C082DBF0CDF894A3FE05C064DBF9
:100B500063DB74DB73DBFBCF97DB4A2D58E040FF90
:100B600064DB40FD72DB91DB46955A95C1F7F4CF0B
:101C0000E4E0FFE5FEBFEDBF00E0ECEBFEE0C0E886
:101C1000D0E0A0E6B0E042E045BD5CEE539571F047
:101C200040EC04BD48BFA03619F0E8B6E6FC46C05B
:101C3000B099F9CF04BD48BFE8B6E6FCE1C1B09B5E
:101C4000FBCF04BD48BFE8B6E6FCE8CFB099FBCFB8
:101C500034B404BD48BFE8B6E6FCD2C1B09BFBCFAC
:101C600024B4022C030C802C07940694402C069478
:101C70008008809420943094409460EE83E084BC8B
:101C800048BFE8B6E6FCBCC1B09BFBCF84BC48BFF4
:101C9000E8B6E6FCC3CFB099FBCF0894E8B6E6FC03
:101CA00023C0B09BFBCFE8B6E6FCB8CFB099FBCF22
:101CB0008894E8B6E6FC18C0B09BFBCF43BC87E134
:101CC000C09AB89A34BC48BFE8B6E6FEFDCFC098CB
:101CD00024BC48BFE8B6E6FEFDCF8A9589F7C0E68A
:101CE000D0E060E081E00BC0679548F6815068F570
:101CF0005CEE0994CA17DB07D1F0699188E066951C
:101D0000C09A34BC48BFE8B610F0E7FC08BBE6FE5A
:101D1000FACFC09808F0C09A24BC48BFE8B610F0CB
:101D2000E7FC08BBE6FEFACF8A9549F7E3CFC09AF5
:101D300034BC48BFC0E8D0E0A0E6B0E0E8B6E7FEBB
:101D4000FDCFB89808BB6ACF80E060E898CFECEB95
:101D5000FEE0C0E8D0E0F8CF009000000090000066
:101D60000090000000900000009000000090000033
:101D70000090000000900000000000006B3121F78F
:101D8000562E3796E1CF962E56263496DDCF762EF8
:101D900056263496D9CF662E56263496D5CF6E3039
:101DA000B1F656263596D0CF69935626CF3584E0C6
:101DB000D80768F681E0681A700A09F43C96C4CF27
:101DC0006511C5CFC0E8D0E0699199918991FD0175
:101DD0007BE170839182028372E073837EE074837F
:101DE0006583068317966130A1F48BE0838388E0D6
:101DF0008D93EF01ECEDFFE185918D93E43EE1F7EA
:101E0000FE01819161918627EA17FB07D9F78D932F
:101E10009ECF6D3151F5792F90E0039683839283A5
:101E200003970D938A95E9F789916991603380074B
:101E300094E0790779F460878991803059F4699149
:101E400060308EE131F0613083E919F0623087E073
:101E500009F482870D93D5CF8017900709F5D990A3
:101E6000C9905601AA0CBB1CCCCF6330E1F06230A4
:101E700041F2603131F2613121F2663069F3623151
:101E8000F1F1833F73E0970758F4643109F166314B
:101E900069F127966531C1F16331F9F10000000065
:101EA00080EC8683AECF90398FE071F0913982E07B
:101EB00059F092398AE041F0943982E329F0903860
:101EC00080E011F0913861F78D9383E0838399CF9F
:101ED00049D0EF01F5018FD076FDFDCF65916D936F
:101EE0000197E1F75F01FE010D938BCF3BD011E02D
:101EF0003ED06DB36D930197D9F70D9382CF47D044
:101F0000000080E092E0689416E06FEF0EF06991B7
:101F10002ED00197D1F7E89474CF8F7F61E07F01D5
:101F2000F5010990199068D032960297D1F70F0108
:101F3000F501500163E0E03C7FE1F70719F058D06C
:101F4000F7015FCF0BD065E009D061E107D0F8CF92
:101F500077B770FDFDCFE199FECF0895F9DF67BF38
:101F6000E8950895039692838383039708953AD062
:101F7000DFBACEBA0894C01ED01E762FE09A6DB399
:101F8000671312FF08957DBBE29A1CBB08957F0181
:101F9000E0E0FEE063E0B0972FD0E9F76F01F701D2
:101FA0000895000000000000000000000000000094
:101FB0000000000000000000000000000000000021
:101FC000687474703A2F2F6769746875622E636F36
:101FD0006D2F73696D2D2F7467792F00415652490B
:101FE00053505F3277B770FDFDCFE199FECF089572
:101FF00003D065E001D061E1F5DF67BFE8950895A2
:00000001FF
