:020000020000FC
:1000000009C569C018951895099465C03AC043C0E0
:1000100043C018951895EBC018951895DEC418952F
:1000200018957AC01895697AC076C044C05D029070
:10003000FFFF7F0000B99FB68A9409F4E5E29FBEF6
:1000400018959FB68A949FBE189520FDC39A21FDEE
:10005000C29A22FDC19AE1E3832C24BC1895A8958D
:1000600018958F12EECFA89511FDEFCFE0916500A6
:10007000852C20FDC39821FDC29822FDC19844BC67
:1000800018959FB640916300415008F40E7F40934D
:1000900063009FBE189518959FB6409164004395E4
:1000A0004093640001F44F77A1F0409164004F70D9
:1000B00019F4BB2019F0BA949FBE189540916600C0
:1000C00043954093660040916700439540936700D5
:1000D000F3CF2061F1CF46B557B59EB496FE0DC063
:1000E0009FB65A5659BD48BD41E84EBD48E048BF8D
:1000F0009FBE18959FB6BB240BC098B693FCFACF51
:100100009FB63A0148B559B55659641A750A106137
:1001100041EC4EBD9FBE18959FB641B14038B1F13C
:10012000483A51F0483B89F0483F39F1403B21F0D3
:100130004F1321C045ED20C067FC0DC0F3B94AEF55
:1001400010FD4FEF40937F0016C067FC07C0409141
:100150007F0043B9F6CF47E9409381005E2FE091DD
:1001600081004191E093810043B9EF39E52F09F017
:1001700002C045E801C045EC46BF9FBE18954091BE
:1001800080004F131461F0938000F5CF4091800000
:10019000439540938000413019F473B06F2EEBCF3C
:1001A000423011F463B0E7CF433021F443B1423021
:1001B00001F7E1CF4A3061F05E2FE4E9E40F43B18B
:1001C0004083E52F50919E00540F50939E00D3CF53
:1001D00043B15091980056FD006157FD0062451BE8
:1001E00050E9450F5093980040939E00C4CF9FB6AE
:1001F0004CB1453F59F006FF0DC030F450918300DB
:100200005A9531F4742E18610F7B04C0006450E0DD
:10021000509383009FBE189590E578ECAB9A949A22
:10022000C39A1ED0E1F7AB98089594E674EB9798C3
:10023000959AC29A15D0E1F7979A089598E770EACF
:10024000939AC19A0DD0E1F708959CE87CE8AB9AA7
:100250009798959AC39A04D0E1F7979AAB98089526
:10026000F2BF82B78032E8F368B3617F68BB62B3E4
:10027000677C62BB60E1F2BFA89582B78717E8F39D
:100280006A95C9F79A95089500D000D000D09FE0F4
:1002900060E1F2BF81E088BFA89588B780FFFDCFFD
:1002A0006A95B9F79A95A1F7089580918F0090917A
:1002B000900089569A4739F0CFE8D0E0E6E2859180
:1002C0008993CF39E1F70895F894EF93F5DFEF9133
:1002D000789408958091600081BF0F7DCFE8D0E0D1
:1002E00080E890E0A895E199FDCF67B760FDFACF6F
:1002F000CF3981F09FBB8EBB0196E09A6DB317F0AA
:100300006993F0CF79917DBBF894E29A6713E19AF3
:100310007894E8CFBCDF8FEF81BF0895000C111CEB
:10032000AA1C8A95D9F70895869FA12C969FA00CA8
:10033000C11DDF1F879FA00CC11DDF1F979FC00D30
:10034000D11D089513FD4AC012FD3AC013FD46C0E9
:1003500012FD36C01F76C30184369F0708F4089546
:10036000C0917D00D0917E008C1B9D0B60F41068C5
:10037000909581959F4F60917B0070917C0007C0A4
:10038000CC27DD2710C06091790070917A008059E8
:100390009140B2F3C8E3D0E0C7DFC73583E0D807A8
:1003A00010F0C7E5D3E0C0937700D093780001FF49
:1003B00003C082E0B82EA7C080E1B816BF1E089522
:1003C000E3011F7E80919D0080FB17F9CC0FC29541
:1003D000209649F3CE016DE373E0DCCFD72D1F7675
:1003E000C0E0D03001F3CE0160E074E0D3CF809163
:1003F00095009091960080937D0090937E0060918F
:10040000910070919200681B790B14D08093790051
:1004100090937A006091950070919600809193007E
:1004200090919400681B790B05D080937B0090938A
:100430007C0008956059714085E595E00196A89586
:100440009F3F890721F0C0EEDCEF6EDFB9F708951A
:10045000F8948CB59DB56091640078B77894903825
:1004600072FD6F1FC0916800D0916900A0906A0072
:10047000809368009093690060936A0000906B001D
:1004800010906C0070916D00C0936B00D0936C0065
:10049000A0926D0080199109670B97306F0728F4BF
:1004A00080E097E060E0D694C7946130A7E5B3E0C0
:1004B00058F06230ACEAB1E038F0643018F080E017
:1004C00090E064E0A6EDD0E07D0180936E00909313
:1004D0006F0060937000669597958795C09168004E
:1004E000D0916900A0906A0070E040D0C093710084
:1004F000D0937200A092730054D014FD27CFC09106
:100500007700D0917800CE15DF0508F0E701CC1513
:10051000DD0508F0E6018EE890E0C817D90708F07D
:10052000CE01880F991FC816D90608F06C0187E51F
:1005300093E08C1B9D0BB1F02096B1F01D7F1160F4
:1005400016FF04C0880F991FCC0FDD1F75E29F13A3
:100550007BE1C09580951E01F8942C017093650095
:10056000789408951360F2CF1C7FF0CF879FC10D60
:10057000DF1FAF1E979FC00DD11DAF1E679FD00D0F
:10058000A11C089580916E0090916F0060917000A1
:10059000C0917100D0917200A09073000895F2DFB5
:1005A000E5DF79B7072E7B7E79BF70E1F894DBBD7C
:1005B000CABD78BF8CB59DB5789401606091640028
:1005C00078B7903872FD6F1FC81BD90BA60AA0928E
:1005D00063000AF40E7F09BE0895279670E1F8942F
:1005E0008CB59DB5C80FD91FDBBDCABD78BFA09221
:1005F000630001607894089514FDA8DE00FDFCCF2F
:100600000895F5BD80E488BFEFE282B3877C82BBAA
:1006100088B3817F88BB0895B09BF093660080917A
:10062000660085FF0895E0E0F894FCE185919491DF
:10063000F0E0789401960297A8F3F894F7BBF4BB26
:10064000F1BB88E181BDF1BD8091600081BFD8CA56
:1006500082E5B69B8F5FB79B8E5F82B985EC86BFC4
:100660000895979AAB98C3DE84E588BF89BFF0BD33
:1006700089E189B9549A86E880BD8CB15F9A579A0E
:10068000E7DF81EC8EBD89B7806289BFBB24137E12
:10069000F0936600F0936700A89514FD0CC0BCDFD2
:1006A00024FD91D1809167008837B1F78CE3809366
:1006B0006700C4DDF1CF46DEC0917700D0917800AD
:1006C000209621F78AE0B81638F312FFF6BF13FF21
:1006D0005498812F8C7019F089B78F7D89BFB5DD53
:1006E000B4DDB3DD8EDF0D7F9798AB98F093660095
:1006F000F0936700A89514FD0EC0BB20D9F78CDFDE
:1007000024FD61D1809167008E31A1F77ADFBFDDD2
:1007100095DD8BDDA6CF04FDD7DD05FDDBDD16DE27
:10072000209621F3BB2011F36CDF23FDFDCF80B7B2
:10073000886080BF3798AB98979ACEE8D0E06E017A
:100740000260ACD082E0B82E86E0809362008CE03C
:100750008093610081E085BD17FD36C0A7D00B7F77
:100760000860949810FD939A9FD0037FF894287F97
:1007700010FD226088B3C19898B38913C29A789407
:1007800095D00460939810FD959A8ED00B7F0860E9
:10079000F894287F10FD216088B3C29898B389131C
:1007A000C39A789483D0037F959810FD949A7CD057
:1007B0000460F894287F10FD246088B3C39898B330
:1007C0008913C19A789435C06FD0037FF894287F3D
:1007D00010FD216088B3C19898B38913C39A7894A7
:1007E00065D00B7F0860949810FD959A5DD00460E9
:1007F000F894287F10FD226088B3C39898B38913BA
:10080000C29A789453D0037F959810FD939A4CD058
:100810000B7F0860F894287F10FD246088B3C2988D
:1008200098B38913C19A789441D00460939810FDCD
:10083000949A80916100803010FF41F1F89480918A
:1008400084009091850001968093840090938500A8
:100850007894E6012096D9F0809161008C3038F4CC
:10086000839580936100629686ED90E005C01F7BC2
:10087000AB986B9687E593E0C817D90710F06C0129
:100880006BCF6E0169CFF0938D00BBDE2BCF4CCFC9
:10089000EFE288B3817F88BBAB9A83C016FFAB9A27
:1008A000F093610010647DC01F7D01C010628091D3
:1008B0006200815050F08093620016FF3EC0C0E09D
:1008C000DFEFAF2E8ADEA4E05EC0EF3211F4E1E389
:1008D000AB9816FF32C023FD72C002FD05C003FDB8
:1008E00006C082E087B905C080E087B902C081E018
:1008F00087B9C0E8DEE370E0A72E6FDE7DDEC09131
:100900007400D0917500A090760072B77F71D71BEC
:10091000AF0A30F0C0307AECD70778E0A70620F4B1
:10092000C0E0D8EB7BE0A72EC0937400D093750095
:10093000A092760052DEAFEF26C07BE130DE5CDEB7
:1009400023FD3DC002FD05C003FD06C082E087B95E
:1009500005C080E087B902C081E087B979E51FDE74
:1009600000FF96CF14FDF2DC68B1612765FFF8CF78
:1009700009DEA92F6F13AFEFC80FD91FA61EC80F2E
:10098000D91FA61E0EDEBA2F00FF88CF14FDDEDCB5
:1009900068B1612765FF03C0AB17AF1FF5CFAA95FC
:1009A00099F756DD16FF28DE24FD0DD080916200F8
:1009B0008F131E7FBF1208958F918F9164CF70E8BF
:1009C000EEDD1ADEEECF2F7E286087E426FD86E47A
:1009D000F0BF87B98FEC86B90895277F40B748608C
:1009E00040BF37983D9A44B155B126FD0DC04093A4
:1009F0008800509389002F7D18954093860050936E
:100A0000870020622064189540938A0050938B00E1
:100A10002F7B189500240FBEEFE5F4E0FEBFEDBF7D
:100A20000292E036F00509F4EEE1E015F005C1F7B9
:100A300081B780936000A4B6F4BF80EC88BB8EE0E1
:100A400087BB80E385BB88E084BB82E082BB8AEB06
:100A500081BB82E083BF81EC8EBDF5BD88E181BDA5
:100A600088E081BD14DC36DC20DCF2DD7894A0FA6D
:100A7000AF1226F4D1DBD9DBE1DBF3CDA2FE04C05B
:100A8000DDDBCADB0068EDCDA1FE02C0DEDBE9CD17
:100A9000F894A3FE05C0C0DBBFDBD0DBCFDBFBCF10
:100AA000F3DB4A2D58E040FFC0DB40FDCEDBEDDB41
:080AB00046955A95C1F7F4CFF9
:101C0000E4E0FFE5FEBFEDBF00E0ECEBFEE0C0E886
:101C1000D0E0A0E6B0E042E045BD5CEE539571F047
:101C200040EC04BD48BFA03619F0E8B6E6FC46C05B
:101C3000B099F9CF04BD48BFE8B6E6FCE1C1B09B5E
:101C4000FBCF04BD48BFE8B6E6FCE8CFB099FBCFB8
:101C500034B404BD48BFE8B6E6FCD2C1B09BFBCFAC
:101C600024B4022C030C802C07940694402C069478
:101C70008008809420943094409460EE83E084BC8B
:101C800048BFE8B6E6FCBCC1B09BFBCF84BC48BFF4
:101C9000E8B6E6FCC3CFB099FBCF0894E8B6E6FC03
:101CA00023C0B09BFBCFE8B6E6FCB8CFB099FBCF22
:101CB0008894E8B6E6FC18C0B09BFBCF43BC87E134
:101CC000C09AB89A34BC48BFE8B6E6FEFDCFC098CB
:101CD00024BC48BFE8B6E6FEFDCF8A9589F7C0E68A
:101CE000D0E060E081E00BC0679548F6815068F570
:101CF0005CEE0994CA17DB07D1F0699188E066951C
:101D0000C09A34BC48BFE8B610F0E7FC08BBE6FE5A
:101D1000FACFC09808F0C09A24BC48BFE8B610F0CB
:101D2000E7FC08BBE6FEFACF8A9549F7E3CFC09AF5
:101D300034BC48BFC0E8D0E0A0E6B0E0E8B6E7FEBB
:101D4000FDCFB89808BB6ACF80E060E898CFECEB95
:101D5000FEE0C0E8D0E0F8CF009000000090000066
:101D60000090000000900000009000000090000033
:101D70000090000000900000000000006B3121F78F
:101D8000562E3796E1CF962E56263496DDCF762EF8
:101D900056263496D9CF662E56263496D5CF6E3039
:101DA000B1F656263596D0CF69935626CF3584E0C6
:101DB000D80768F681E0681A700A09F43C96C4CF27
:101DC0006511C5CFC0E8D0E0699199918991FD0175
:101DD0007BE170839182028372E073837EE074837F
:101DE0006583068317966130A1F48BE0838388E0D6
:101DF0008D93EF01ECEDFFE185918D93E43EE1F7EA
:101E0000FE01819161918627EA17FB07D9F78D932F
:101E10009ECF6D3151F5792F90E0039683839283A5
:101E200003970D938A95E9F789916991603380074B
:101E300094E0790779F460878991803059F4699149
:101E400060308EE131F0613083E919F0623087E073
:101E500009F482870D93D5CF8017900709F5D990A3
:101E6000C9905601AA0CBB1CCCCF6330E1F06230A4
:101E700041F2603131F2613121F2663069F3623151
:101E8000F1F1833F73E0970758F4643109F166314B
:101E900069F127966531C1F16331F9F10000000065
:101EA00080EC8683AECF90398FE071F0913982E07B
:101EB00059F092398AE041F0943982E329F0903860
:101EC00080E011F0913861F78D9383E0838399CF9F
:101ED00049D0EF01F5018FD076FDFDCF65916D936F
:101EE0000197E1F75F01FE010D938BCF3BD011E02D
:101EF0003ED06DB36D930197D9F70D9382CF47D044
:101F0000000080E092E0689416E06FEF0EF06991B7
:101F10002ED00197D1F7E89474CF8F7F61E07F01D5
:101F2000F5010990199068D032960297D1F70F0108
:101F3000F501500163E0E03C7FE1F70719F058D06C
:101F4000F7015FCF0BD065E009D061E107D0F8CF92
:101F500077B770FDFDCFE199FECF0895F9DF67BF38
:101F6000E8950895039692838383039708953AD062
:101F7000DFBACEBA0894C01ED01E762FE09A6DB399
:101F8000671312FF08957DBBE29A1CBB08957F0181
:101F9000E0E0FEE063E0B0972FD0E9F76F01F701D2
:101FA0000895000000000000000000000000000094
:101FB0000000000000000000000000000000000021
:101FC000687474703A2F2F6769746875622E636F36
:101FD0006D2F73696D2D2F7467792F00415652490B
:101FE00053505F3277B770FDFDCFE199FECF089572
:101FF00003D065E001D061E1F5DF67BFE8950895A2
:00000001FF
