:020000020000FC
:1000000025C465C018951895099461C036C03FC0D5
:100010003FC0189518957BC018951895FCC3189586
:10002000189575C01895697AC076C044C05D9FB6B2
:100030008A9409F4E1E29FBE18959FB68A949FBE08
:10004000189520FDC29A21FDC19A22FDC09AEDE2C9
:10005000832C24BC1895A89518958F12EECFA895DF
:1000600011FDEFCFE0916500852C20FDC29821FDA8
:10007000C19822FDC09844BC18959FB6409163007A
:10008000415008F40E7F409363009FBE1895189569
:100090009FB64091640043954093640001F44F770C
:1000A000A1F0409164004F7019F4BB2019F0BA948C
:1000B0009FBE18954091660043954093660040911D
:1000C0006700439540936700F3CF2061F1CF4CB5B3
:1000D0005DB5829B0DC09FB65A5659BD48BD42E0E2
:1000E00045BF48E048BF9FBE18959FB6BB240BC0D4
:1000F00098B693FCFACF9FB63A0148B559B5565910
:10010000641A750A106143E045BF9FBE189590E5DB
:1001100078EC949AC29A17D0E1F7089594E674EBBC
:10012000939AC19A10D0E1F7089598E770EA959AEA
:10013000C09A09D0E1F708959CE87CE8939AC29AA6
:1001400002D0E1F70895F2BF82B78032E8F368B3D6
:10015000687F68BB62B3677C62BB60E1F2BFA89551
:1001600082B78717E8F36A95C9F79A95089500D082
:1001700000D000D09FE060E1F2BF81E088BFA89589
:1001800088B780FFFDCF6A95B9F79A95A1F70895D2
:1001900080918B0090918C0089569A4739F0CBE87A
:1001A000D0E0E6E285918993C339E1F70895809123
:1001B000600081BF0F7DCBE8D0E080E890E0A8959B
:1001C000E199FDCF67B760FDFACFC33981F09FBBDE
:1001D0008EBB0196E09A6DB317F06993F0CF7991D9
:1001E0007DBBF894E29A6713E19A7894E8CFC2DF76
:1001F0008FEF81BF0895000C111CAA1C8A95D9F7B6
:100200000895869FA12C969FA00CC11DDF1F879F7C
:10021000A00CC11DDF1F979FC00DD11D08951F7633
:10022000C30184369F0708F40895C0917D00D091E2
:100230007E008C1B9D0B60F41068909581959F4FFC
:1002400060917B0070917C0007C0CC27DD2710C037
:100250006091790070917A0080599140B2F3C8E3BF
:10026000D0E0CFDFC73583E0D80710F0C7E5D3E093
:10027000C0937700D093780001FF03C082E0B82ECE
:1002800090C080E1B816BF1E0895809191009091B2
:10029000920080937D0090937E0060918D0070911C
:1002A0008E00681B790B14D08093790090937A00AC
:1002B000609191007091920080918F0090919000D8
:1002C000681B790B05D080937B0090937C00089588
:1002D0006059714085E595E00196A8959F3F890793
:1002E00021F0C0EEDCEF8DDFB9F70895F8948CB5FE
:1002F0009DB56091640078B77894903872FD6F1F57
:10030000C0916800D0916900A0906A008093680055
:100310009093690060936A0000906B0010906C00ED
:1003200070916D00C0936B00D0936C00A0926D0033
:1003300080199109670B97306F0728F480E097E0E8
:1003400060E0D694C7946130A7E5B3E058F062301E
:10035000ACEAB1E038F0643018F080E090E064E09E
:10036000A6EDD0E07D0180936E0090936F006093C6
:100370007000669597958795C0916800D091690047
:10038000A0906A0073E340D0C0937100D0937200D4
:10039000A092730054D014FD42CFC0917700D09149
:1003A0007800CE15DF0508F0E701CC15DD0508F073
:1003B000E6018EE890E0C817D90708F0CE01880F53
:1003C000991FC816D90608F06C0187E593E08C1BCD
:1003D0009D0BB1F02096B1F01D7F116016FF04C097
:1003E000880F991FCC0FDD1F71E29F1377E1C09535
:1003F00080951E01F8942C017093650078940895FF
:100400001360F2CF1C7FF0CF879FC10DDF1FAF1E9F
:10041000979FC00DD11DAF1E679FD00DA11C0895E1
:1004200080916E0090916F0060917000C09171009A
:10043000D0917200A09073000895F2DFE5DF79B7E4
:10044000072E7B7E79BF70E1F894DBBDCABD78BF13
:100450008CB59DB5789401606091640078B7903850
:1004600072FD6F1FC81BD90BA60AA09263000AF485
:100470000E7F09BE0895279670E1F8948CB59DB55E
:10048000C80FD91FDBBDCABD78BFA0926300016051
:100490007894089514FDC3DE00FDFCCF0895F5BDEA
:1004A00080E488BFEBE282B3877C82BB88B3887F1D
:1004B00088BB0895829BF09366008091660085FF5B
:1004C0000895E0E0F894FCE185919491F0E078944F
:1004D00001960297A8F3F894F7BBF4BBF1BB88E14F
:1004E00081BDF1BD8091600081BF8ACBCEDE84E505
:1004F00088BF89BF83E085BF80E48BBFBB24137EA8
:10050000F0936600F0936700A89514FD0CC0D2DF4D
:1005100024FD79D1809167008837B1F78CE380930F
:10052000670003DEF1CF7BDEC0917700D0917800C9
:10053000209621F78AE0B81638F3812F8C7009F0E5
:10054000FBBFFADDF9DDF8DDAADF0D7FF093660071
:10055000F0936700A89514FD0EC0BB20D9F7AADF61
:1005600024FD51D1809167008E31A1F798DF02DE22
:10057000DCDDD4DDBBCF53DE209641F3BB2031F36D
:100580008EDF23FDFDCF80B7886080BF3798CEE82F
:10059000D0E06E010260AAD082E0B82E86E080939F
:1005A00062008CE08093610081E085BD17FD36C05C
:1005B000A4D00B7F0860949810FD959A9CD0037F7F
:1005C000F894287F10FD226088B3C09898B38913EF
:1005D000C19A789492D00460959810FD939A8BD02C
:1005E0000B7F0860F894287F10FD216088B3C198C4
:1005F00098B38913C29A789480D0037F939810FDA2
:10060000949A79D00460F894287F10FD246088B310
:10061000C29898B38913C09A789435C06CD0037F80
:10062000F894287F10FD216088B3C09898B389138F
:10063000C29A789462D00B7F0860949810FD939AC8
:100640005AD00460F894287F10FD226088B3C298C5
:1006500098B38913C19A789450D0037F939810FD72
:10066000959A49D00B7F0860F894287F10FD24608C
:1006700088B3C19898B38913C09A78943ED0046027
:10068000959810FD949A80916100803010FF39F1A7
:10069000F894809180009091810001968093800071
:1006A000909381007894E6012096D1F080916100CA
:1006B0008C3038F4839580936100629686ED90E0EB
:1006C00004C01F7B6B9687E593E0C817D90710F02D
:1006D0006C016CCF6E016ACFF0938900E0DE34CFFD
:1006E0004FCFEBE288B3887F88BB7BC016FFF093C7
:1006F0006100106476C01F7D01C0106280916200AD
:10070000815050F08093620016FF37C0C0E0DFEFE9
:10071000AF2EB1DEA4E057C0EB3209F4EDE216FFD4
:100720002CC023FD6CC002FD05C003FD06C082E0A5
:1007300087B905C085E087B902C084E087B9C09158
:100740007400D0917500A090760072B77F71D71BAE
:10075000AF0A30F0C0307AECD70778E0A70620F473
:10076000C0E0D8EB7BE0A72EC0937400D093750057
:10077000A092760080DEAFEF26C07BE15EDE8ADEEF
:1007800023FD3DC002FD05C003FD06C082E087B920
:1007900005C085E087B902C084E087B979E54DDE00
:1007A00000FF9FCF14FD3BDD68B1612765FDF8CFE9
:1007B00037DEA92F6F13AFEFC80FD91FA61EC80FC2
:1007C000D91FA61E3CDEBA2F00FF90CF14FD27DDF7
:1007D00068B1612765FD03C0AB17AF1FF5CFAA95C0
:1007E00099F784DD16FF56DE24FD0DD0809162005E
:1007F0008F131E7FBF1208958F918F916DCF70E878
:100800001CDE48DEEECF2F7E286080E4F0BF87B983
:100810008FEC86B90895277F40B7486040BF37986E
:100820003D9A44B155B140938400509385002F7D8B
:10083000189540938200509383002062206418959D
:1008400040938600509387002F7B189500240FBE9D
:10085000EFE5F4E0FEBFEDBF0292E036F00509F4EB
:10086000EEE1E015F005C1F781B780936000A4B612
:10087000F4BFF8BB87E087BBF5BBF4BBF2BB88E3F2
:1008800081BB82E083BF81E08EBDF5BD88E181BD83
:1008900088E081BD6FDC8BDC7BDC7894A0FAAF1242
:1008A00026F435DC3BDC41DC21CEA2FE04C03DDC7D
:1008B0002EDC00681BCEA1FE02C03EDC17CEF894F1
:1008C000A3FE05C024DC23DC30DC2FDCFBCF4FDCB7
:1008D0004A2D58E040FF22DC40FD2EDC49DC4695E5
:0608E0005A95C1F7F4CFA8
:101C0000E4E0FFE5FEBFEDBF00E0ECEBFEE0C0E886
:101C1000D0E0A0E6B0E042E045BD5CEE539571F047
:101C200040EC04BD48BFA03619F0E8B6E6FC46C05B
:101C30008299F9CF04BD48BFE8B6E6FCE1C1829BBA
:101C4000FBCF04BD48BFE8B6E6FCE8CF8299FBCFE6
:101C500034B404BD48BFE8B6E6FCD2C1829BFBCFDA
:101C600024B4022C030C802C07940694402C069478
:101C70008008809420943094409460EE83E084BC8B
:101C800048BFE8B6E6FCBCC1829BFBCF84BC48BF22
:101C9000E8B6E6FCC3CF8299FBCF0894E8B6E6FC31
:101CA00023C0829BFBCFE8B6E6FCB8CF8299FBCF7E
:101CB0008894E8B6E6FC18C0829BFBCF43BC87E162
:101CC000929A8A9A34BC48BFE8B6E6FEFDCF929855
:101CD00024BC48BFE8B6E6FEFDCF8A9589F7C0E68A
:101CE000D0E060E081E00BC0679548F6815068F570
:101CF0005CEE0994CA17DB07D1F0699188E066951C
:101D0000929A34BC48BFE8B610F0E7FC02BBE6FE8E
:101D1000FACF929808F0929A24BC48BFE8B610F027
:101D2000E7FC02BBE6FEFACF8A9549F7E3CF929A29
:101D300034BC48BFC0E8D0E0A0E6B0E0E8B6E7FEBB
:101D4000FDCF8A9802BB6ACF80E060E898CFECEBC9
:101D5000FEE0C0E8D0E0F8CF009000000090000066
:101D60000090000000900000009000000090000033
:101D70000090000000900000000000006B3121F78F
:101D8000562E3796E1CF962E56263496DDCF762EF8
:101D900056263496D9CF662E56263496D5CF6E3039
:101DA000B1F656263596D0CF69935626CF3584E0C6
:101DB000D80768F681E0681A700A09F43C96C4CF27
:101DC0006511C5CFC0E8D0E0699199918991FD0175
:101DD0007BE170839182028372E073837EE074837F
:101DE0006583068317966130A1F48BE0838388E0D6
:101DF0008D93EF01ECEDFFE185918D93E43EE1F7EA
:101E0000FE01819161918627EA17FB07D9F78D932F
:101E10009ECF6D3151F5792F90E0039683839283A5
:101E200003970D938A95E9F789916991603380074B
:101E300094E0790779F460878991803059F4699149
:101E400060308EE131F0613083E919F0623087E073
:101E500009F482870D93D5CF8017900709F5D990A3
:101E6000C9905601AA0CBB1CCCCF6330E1F06230A4
:101E700041F2603131F2613121F2663069F3623151
:101E8000F1F1833F73E0970758F4643109F166314B
:101E900069F127966531C1F16331F9F10000000065
:101EA00080EC8683AECF90398FE071F0913982E07B
:101EB00059F092398AE041F0943982E329F0903860
:101EC00080E011F0913861F78D9383E0838399CF9F
:101ED00049D0EF01F5018FD076FDFDCF65916D936F
:101EE0000197E1F75F01FE010D938BCF3BD011E02D
:101EF0003ED06DB36D930197D9F70D9382CF47D044
:101F0000000080E092E0689416E06FEF0EF06991B7
:101F10002ED00197D1F7E89474CF8F7F61E07F01D5
:101F2000F5010990199068D032960297D1F70F0108
:101F3000F501500163E0E03C7FE1F70719F058D06C
:101F4000F7015FCF0BD065E009D061E107D0F8CF92
:101F500077B770FDFDCFE199FECF0895F9DF67BF38
:101F6000E8950895039692838383039708953AD062
:101F7000DFBACEBA0894C01ED01E762FE09A6DB399
:101F8000671312FF08957DBBE29A1CBB08957F0181
:101F9000E0E0FEE063E0B0972FD0E9F76F01F701D2
:101FA0000895000000000000000000000000000094
:101FB0000000000000000000000000000000000021
:101FC000687474703A2F2F6769746875622E636F36
:101FD0006D2F73696D2D2F7467792F00415652490B
:101FE00053505F3277B770FDFDCFE199FECF089572
:101FF00003D065E001D061E1F5DF67BFE8950895A2
:00000001FF
